:020000040800F2
:100000000000052025310108392E01083F2E010886
:10001000452E01084B2E0108512E0108000000005A
:1000200000000000000000000000000031B50008E2
:10003000572E01080000000081B70008E183000886
:1000400075310108753101087531010875310108F4
:1000500075310108753101087531010875310108E4
:1000600075310108753101087531010875310108D4
:10007000753101087531010875310108652E0108D7
:10008000792E0108753101087531010875310108B3
:1000900075310108753101087531010875310108A4
:1000A0007531010875310108753101087531010894
:1000B0007531010875310108753101087531010884
:1000C0007531010875310108753101087531010874
:1000D000753101088D2E0108A12E01087531010826
:1000E00075310108B52E0108753101087531010817
:1000F0007531010875310108753101087531010844
:100100007531010875310108753101087531010833
:10011000C92E010875310108DD2E0108753101086D
:100120007531010875310108753101087531010813
:10013000F12E01087531010875310108753101088A
:1001400075310108753101087531010875310108F3
:1001500075310108052F0108192F010875310108B3
:1001600075310108753101087531010875310108D3
:1001700075310108753101087531010875310108C3
:1001800075310108753101087531010875310108B3
:1001900075310108753101087531010875310108A3
:0C01A00075310108753101087531010846
:1001B00010B5054C237833B9044B13B10448AFF3A1
:1001C00000800123237010BD88050020000000007E
:1001D0009CA7010808B5034B1BB103490348AFF3C3
:1001E000008008BD000000008C0500209CA70108CD
:1001F00010F8012B11F8013B012A28BF9A42F7D0D1
:10020000D01A7047034613F8012B002AFBD1181AA5
:1002100001387047000000000000000000000000EE
:1002200001F0FF01102A2BDB10F0070F08D010F8A7
:10023000013B013A8B422DD010F0070F42B3F6D1AB
:10024000F0B441EA012141EA014122F007047FF0C4
:1002500000070023F0E80256083C85EA010586EA1B
:10026000010685FA47F5A3FA87F586FA47F6A5FA57
:1002700087F68EB9EED1F0BC01F0FF0102F0070263
:1002800032B110F8013B013A83EA010313B1F8D10E
:100290000020704701387047002D06BF35460338EF
:1002A000073815F0010F07D1013015F4807F02BF28
:1002B000013015F4C03F0130F0BC0138704700BF79
:1002C00081F0004102E000BF83F0004330B54FEA07
:1002D00041044FEA430594EA050F08BF90EA020F74
:1002E0001FBF54EA000C55EA020C7FEA645C7FEA07
:1002F000655C00F0E2804FEA5454D4EB5555B8BF2A
:100300006D420CDD2C4480EA020281EA030382EA9A
:10031000000083EA010180EA020281EA0303362D2C
:1003200088BF30BD11F0004F4FEA01314FF4801CFF
:100330004CEA113102D0404261EB410113F0004F11
:100340004FEA03334CEA133302D0524263EB4303C8
:1003500094EA050F00F0A780A4F10104D5F1200E66
:100360000DDB02FA0EFC22FA05F2801841F10001C1
:1003700003FA0EF2801843FA05F359410EE0A5F195
:1003800020050EF1200E012A03FA0EFC28BF4CF0C6
:10039000020C43FA05F3C01851EBE37101F000457C
:1003A00007D54FF0000EDCF1000C7EEB00006EEB89
:1003B0000101B1F5801F1BD3B1F5001F0CD3490813
:1003C0005FEA30004FEA3C0C04F101044FEA44526A
:1003D00012F5800F80F09A80BCF1004F08BF5FEAF1
:1003E000500C50F1000041EB045141EA050130BDD1
:1003F0005FEA4C0C404141EB0101013C28BFB1F5E3
:10040000801FE9D291F0000F04BF01460020B1FA2D
:1004100081F308BF2033A3F10B03B3F120020CDA00
:100420000C3208DD02F1140CC2F10C0201FA0CF0DE
:1004300021FA02F10CE002F11402D8BFC2F1200C43
:1004400001FA02F120FA0CFCDCBF41EA0C019040F9
:10045000E41AA2BF01EB0451294330BD6FEA040442
:100460001F3C1CDA0C340EDC04F11404C4F120022D
:1004700020FA04F001FA02F340EA030021FA04F33F
:1004800045EA030130BDC4F10C04C4F1200220FA96
:1004900002F001FA04F340EA0300294630BD21FAD4
:1004A00004F0294630BD94F0000F83F4801306BF9A
:1004B00081F480110134013D4EE77FEA645C18BF8E
:1004C0007FEA655C29D094EA050F08BF90EA020F25
:1004D00005D054EA000C04BF1946104630BD91EA1D
:1004E000030F1EBF0021002030BD5FEA545C05D120
:1004F0004000494128BF41F0004130BD14F580045F
:100500003CBF01F5801130BD01F0004545F0FE41D2
:1005100041F470014FF0000030BD7FEA645C1ABF07
:10052000194610467FEA655C1CBF0B46024650EA3E
:10053000013406BF52EA033591EA030F41F400216A
:1005400030BD00BF90F0000F04BF0021704730B5F0
:100550004FF4806404F132044FF000054FF00001C5
:1005600050E700BF90F0000F04BF0021704730B586
:100570004FF4806404F1320410F0004548BF40425B
:100580004FF000013EE700BF42004FEAE2014FEAB0
:1005900031014FEA02701FBF12F07F4393F07F4F8B
:1005A00081F06051704732F07F4208BF704793F08E
:1005B0007F4F04BF41F40021704730B54FF46074A1
:1005C00001F0004521F000411CE700BF50EA0102A4
:1005D00008BF704730B54FF000050AE050EA01024D
:1005E00008BF704730B511F0004502D5404261EBBD
:1005F00041014FF4806404F132045FEA915C3FF4FE
:10060000D8AE4FF003025FEADC0C18BF03325FEA9A
:10061000DC0C18BF033202EBDC02C2F1200300FA4B
:1006200003FC20FA02F001FA03FE40EA0E0021FA70
:1006300002F11444BDE600BF70B54FF0FF0C4CF45E
:10064000E06C1CEA11541DBF1CEA135594EA0C0F10
:1006500095EA0C0F00F0DEF82C4481EA030621EA4B
:100660004C5123EA4C5350EA013518BF52EA033586
:1006700041F4801143F4801338D0A0FB02CE4FF038
:100680000005E1FB02E506F00042E0FB03E54FF068
:100690000006E1FB03569CF0000F18BF4EF0010E60
:1006A000A4F1FF04B6F5007F64F5407404D25FEA5C
:1006B0004E0E6D4146EB060642EAC62141EA55510F
:1006C0004FEAC52040EA5E504FEACE2EB4F1FD0C51
:1006D00088BFBCF5E06F1ED8BEF1004F08BF5FEACF
:1006E000500E50F1000041EB045170BD06F0004681
:1006F00046EA010140EA020081EA0301B4EB5C042E
:10070000C2BFD4EB0C0541EA045170BD41F4801125
:100710004FF0000E013C00F3AB8014F1360FDEBF4A
:10072000002001F0004170BDC4F10004203C35DA26
:100730000C341BDC04F11404C4F1200500FA05F3A9
:1007400020FA04F001FA05F240EA020001F000424A
:1007500021F0004110EBD37021FA04F642EB0601C0
:100760005EEA430E08BF20EAD37070BDC4F10C04EA
:10077000C4F1200500FA04F320FA05F001FA04F2AE
:1007800040EA020001F0004110EBD37041F100019A
:100790005EEA430E08BF20EAD37070BDC4F12005A5
:1007A00000FA05F24EEA020E20FA04F301FA05F20D
:1007B00043EA020321FA04F001F0004121FA04F2B5
:1007C00020EA020000EBD3705EEA430E08BF20EA85
:1007D000D37070BD94F0000F0FD101F000464000BF
:1007E00041EB010111F4801F08BF013CF7D041EA41
:1007F000060195F0000F18BF704703F00046520045
:1008000043EB030313F4801F08BF013DF7D043EA15
:100810000603704794EA0C0F0CEA135518BF95EACB
:100820000C0F0CD050EA410618BF52EA4306D1D152
:1008300081EA030101F000414FF0000070BD50EA71
:10084000410606BF1046194652EA430619D094EAFB
:100850000C0F02D150EA013613D195EA0C0F05D1E5
:1008600052EA03361CBF104619460AD181EA030139
:1008700001F0004141F0FE4141F470014FF00000F1
:1008800070BD41F0FE4141F4780170BD70B54FF08C
:10089000FF0C4CF4E06C1CEA11541DBF1CEA13550C
:1008A00094EA0C0F95EA0C0F00F0A7F8A4EB0504EE
:1008B00081EA030E52EA03354FEA013100F08880E5
:1008C0004FEA03334FF0805545EA131343EA1263AE
:1008D0004FEA022245EA111545EA10654FEA002663
:1008E0000EF000419D4208BF964244F1FD0404F51C
:1008F000407402D25B084FEA3202B61A65EB030578
:100900005B084FEA32024FF480104FF4002CB6EB34
:10091000020E75EB030E22BFB61A754640EA0C00B4
:100920005B084FEA3202B6EB020E75EB030E22BFF4
:10093000B61A754640EA5C005B084FEA3202B6EB35
:10094000020E75EB030E22BFB61A754640EA9C00F4
:100950005B084FEA3202B6EB020E75EB030E22BFC4
:10096000B61A754640EADC0055EA060E18D04FEA82
:10097000051545EA16754FEA06164FEAC30343EA22
:1009800052734FEAC2025FEA1C1CC0D111F4801FEF
:100990000BD141EA00014FF000004FF0004CB6E7E8
:1009A00011F4801F04BF01430020B4F1FD0C88BF87
:1009B000BCF5E06F3FF6AFAEB5EB030C04BFB6EB92
:1009C000020C5FEA500C50F1000041EB045170BD85
:1009D0000EF0004E4EEA113114EB5C04C2BFD4EBB2
:1009E0000C0541EA045170BD41F480114FF0000E36
:1009F000013C90E645EA060E8DE60CEA135594EAB2
:100A00000C0F08BF95EA0C0F3FF43BAF94EA0C0FB4
:100A10000AD150EA01347FF434AF95EA0C0F7FF429
:100A200025AF104619462CE795EA0C0F06D152EA7D
:100A300003353FF4FDAE1046194622E750EA410661
:100A400018BF52EA43067FF4C5AE50EA41047FF472
:100A50000DAF52EA43057FF4EBAE12E74FF0FF3CD7
:100A600006E000BF4FF0010C02E000BF4FF0010CA8
:100A70004DF804CD4FEA410C7FEA6C5C4FEA430C21
:100A800018BF7FEA6C5C1BD001B050EA410C0CBF70
:100A900052EA430C91EA030F02BF90EA020F0020D2
:100AA000704710F1000F91EA030F58BF994208BF39
:100AB00090422CBFD8176FEAE37040F001007047F6
:100AC0004FEA410C7FEA6C5C02D150EA013C07D14D
:100AD0004FEA430C7FEA6C5CD6D152EA033CD3D098
:100AE0005DF8040B704700BF8446104662468C4692
:100AF0001946634600E000BF01B5FFF7B7FF0028C5
:100B000048BF10F1000F01BD4DF808EDFFF7F4FFED
:100B10000CBF012000205DF808FB00BF4DF808ED78
:100B2000FFF7EAFF34BF012000205DF808FB00BF9B
:100B30004DF808EDFFF7E0FF94BF012000205DF8BD
:100B400008FB00BF4DF808EDFFF7CEFF94BF012072
:100B500000205DF808FB00BF4DF808EDFFF7C4FF6B
:100B600034BF012000205DF808FB00BF4FEA410CB4
:100B70007FEA6C5C02D150EA013C0AD14FEA430C97
:100B80007FEA6C5C02D152EA033C02D14FF00000D4
:100B900070474FF0010070474FEA410212F5001212
:100BA00015D211D56FF47873B3EB625212D94FEAB4
:100BB000C12343F0004343EA505311F0004F23FA9E
:100BC00002F018BF404270474FF00000704750EAF3
:100BD000013005D111F0004008BF6FF000407047B0
:100BE0004FF00000704700BF4A0011D212F500120A
:100BF00011D20DD56FF47873B3EB62520ED44FEA75
:100C0000C12343F0004343EA505323FA02F07047F4
:100C10004FF00000704750EA013002D14FF0FF3032
:100C200070474FF0000070474FEA4102B2F1E043D5
:100C300024BFB3F5001CDCF1FE5C0DD901F0004CC3
:100C40004FEAC0024CEA5070B2F1004F40EB830013
:100C500008BF20F00100704711F0804F21D113F13F
:100C60003872BCBF01F00040704741F480114FEA78
:100C70005252C2F11802C2F1200C10FA0CF320FA01
:100C800002F018BF40F001004FEAC1234FEAD3231E
:100C900003FA0CFC40EA0C0023FA02F34FEA430388
:100CA000CCE77FEA625307D150EA01331EBF4FF011
:100CB000FE4040F44000704701F0004040F0FE402C
:100CC00040F40000704700BF53B94AB9002908BF7B
:100CD00000281CBF4FF0FF314FF0FF3000F0A4B9E7
:100CE000ADF1080C6DE904CE00F03CF8DDF804E04D
:100CF000DDE9022304B0704738B500220023044622
:100D00000D46FFF70BFF28B920462946BDE83840BD
:100D100000F00AB8204605F1004100F005F8404215
:100D200061EB410138BD00BFD0B50C4B0022064637
:100D30000F46FFF781FCFFF757FF0446FFF702FC61
:100D4000074B0022FFF778FC02460B463046394637
:100D5000FFF7BAFAFFF748FF2146D0BD0000F03D8B
:100D60000000F0412DE9F047089D04468C46002B19
:100D700040F083808A42174647D9B2FA82F242B1E4
:100D8000C2F1200024FA00F09140974040EA010CA3
:100D900094404FEA1748230CBCFBF8F61FFA87FE75
:100DA00008FB16C143EA014306FB0EF1994209D93B
:100DB000FB1806F1FF3080F01981994240F216814C
:100DC000023E3B445B1AA4B2B3FBF8F008FB1033BD
:100DD00044EA034400FB0EFEA64509D93C1900F184
:100DE000FF3380F00581A64540F2028102383C4481
:100DF00040EA0640A4EB0E0400261DB1D4400023B7
:100E0000C5E900433146BDE8F08702B9FFDEB2FA1A
:100E100082F2002A50D1CB1B4FEA174E1FFA87F8F7
:100E20000126B3FBFEFC210C0EFB1C3341EA0341FF
:100E300008FB0CF38B4207D979180CF1FF3002D272
:100E40008B4200F2E9808446C91AA3B2B1FBFEF0DE
:100E50000EFB101143EA014408FB00F8A04507D936
:100E60003C1900F1FF3302D2A04500F2D9801846A8
:100E7000A4EB080440EA0C40BFE78B4209D9002DDF
:100E800000F0B1800026C5E9000130463146BDE8DA
:100E9000F087B3FA83F6002E4AD18B4202D3824206
:100EA00000F2B880841A61EB030101208C46002D0A
:100EB000A8D0C5E9004CA5E7C2F1200320FA03F64B
:100EC000974001FA02F04FEA174ED9403043030C25
:100ED000B1FBFEF61FFA87F80EFB161143EA014339
:100EE00006FB08F1994204FA02F409D9FB1806F14D
:100EF000FF3C80F08D80994240F28A80023E3B4464
:100F00005B1A81B2B3FBFEF00EFB103341EA0341E2
:100F100000FB08F38B4207D9791800F1FF3C73D22C
:100F20008B4271D902383944CB1A40EA064678E739
:100F3000C6F1200C03FA06F422FA0CF31C4320FA43
:100F40000CF701FA06F34FEA144E21FA0CF11F4395
:100F50003B0CB1FBFEF91FFA84F80EFB191143EAB2
:100F6000014109FB08FA8A4502FA06F200FA06F383
:100F700008D9611809F1FF3048D28A4546D9A9F14C
:100F800002092144A1EB0A01BFB2B1FBFEF00EFB46
:100F9000101147EA014700FB08F8B84507D9E719DF
:100FA00000F1FF312ED2B8452CD90238274440EA4F
:100FB0000940A7EB0807A0FB02894F45C6464946F2
:100FC0001AD317D05DB1B3EB0E0267EB010707FA36
:100FD0000CFCF2404CEA0202F740C5E9002700266B
:100FE0003146BDE8F0872E4628460BE70646E9E67F
:100FF0001846FDE64345E5D2B8EB020E69EB040165
:101000000138DFE70846D2E760468DE78146B9E759
:10101000664675E730464AE7ACF1020C394413E7FF
:1010200002383C4424E700BF704700BF80B582B05F
:1010300000AF0023FB71032000F018F9002011F02D
:10104000A5FE0346002B02D00123FB7101E011F045
:10105000D9FBFB7918460837BD4680BD80B400AF88
:10106000064B1B781A46064B1B681344044A136050
:1010700000BFBD465DF8047B704700BF0400002040
:101080000821032080B400AF034B1B681846BD46FF
:101090005DF8047B704700BF0821032080B584B051
:1010A00000AF7860FFF7EEFFB8607B68FB60FB681D
:1010B000B3F1FF3F05D00A4B1B781A46FB68134477
:1010C000FB6000BFFFF7DEFF0246BB68D31AFA6879
:1010D0009A42F7D800BF00BF1037BD4680BD00BFA1
:1010E0000400002080B485B000AF78607B6803F016
:1010F0000703FB600C4BDB68BB60BA684FF6FF036D
:101100001340BB60FB681A02BB68134343F0BF6324
:1011100043F40033BB60044ABB68D36000BF14379C
:10112000BD465DF8047B704700ED00E080B400AF81
:10113000044BDB681B0A03F007031846BD465DF845
:10114000047B704700ED00E080B483B000AF03463D
:10115000FB7197F90730002B0BDBFB7903F01F02C3
:10116000074997F907305B09012000FA02F241F8BC
:10117000232000BF0C37BD465DF8047B704700BFDD
:1011800000E100E080B483B000AF03463960FB713A
:1011900097F90730002B0ADB3B68DAB20C4997F964
:1011A00007301201D2B20B4483F800230AE03B68F7
:1011B000DAB20849FB7903F00F03043B1201D2B203
:1011C0000B441A7600BF0C37BD465DF8047B7047B0
:1011D00000E100E000ED00E080B489B000AFF8600D
:1011E000B9607A60FB6803F00703FB61FB69C3F138
:1011F0000703042B28BF0423BB61FB690433062BC0
:1012000002D9FB69033B00E000237B614FF0FF3212
:10121000BB6902FA03F3DA43BB681A407B699A4060
:101220004FF0FF317B6901FA03F3D9437B680B4030
:10123000134318462437BD465DF8047B7047000011
:1012400080B400AFBFF34F8F00BF064BDB6803F4E1
:10125000E0620449044B1343CB60BFF34F8F00BFE0
:1012600000BFFDE700ED00E00400FA0580B582B0A4
:1012700000AF78607B68072B0FD07B68062B0CD003
:101280007B68052B09D07B68042B06D07B68032B79
:1012900003D0A721044811F0CEF97868FFF722FFA8
:1012A00000BF0837BD4680BDB8A7010880B586B02D
:1012B00000AF0346B9607A60FB7300237B617B68F3
:1012C0000F2B03D9BF210E4811F0B5F9BB680F2BC6
:1012D00003D9C0210A4811F0AEF9FFF727FF786162
:1012E0007A68B9687869FFF777FF024697F90F3097
:1012F00011461846FFF746FF00BF1837BD4680BDB0
:10130000B8A7010880B582B000AF0346FB7197F91A
:101310000730002B03DAD321054811F08CF997F937
:1013200007301846FFF710FF00BF0837BD4680BDE5
:10133000B8A7010880B500AFFFF782FF80B584B081
:1013400000AF78607B68002B01D101239DE17B68B1
:101350001B68794A934244D07B681B68774A934262
:101360003FD07B681B68764A93423AD07B681B6803
:10137000744A934235D07B681B68734A934230D0DD
:101380007B681B68714A93422BD07B681B68704A4C
:10139000934226D07B681B686E4A934221D07B68BB
:1013A0001B686D4A93421CD07B681B686B4A934252
:1013B00017D07B681B686A4A934212D07B681B680F
:1013C000684A93420DD07B681B68674A934208D0F5
:1013D0007B681B68654A934203D0A421644811F0DE
:1013E0002AF97B689B68002B0CD07B689B68102BCC
:1013F00008D07B689B68B3F5804F03D0A5215C487B
:1014000011F019F97B68DB68402B07D07B68DB683B
:10141000002B03D0A621564811F00DF97B681B69FB
:10142000802B07D07B681B69002B03D0A721504875
:1014300011F001F97B685B69002B0DD07B685B695B
:10144000B3F5807F08D07B685B69B3F5007F03D07C
:10145000A821474811F0EFF87B689B69002B0DD05D
:101460007B689B69B3F5806F08D07B689B69B3F597
:10147000006F03D0A9213E4811F0DDF87B68DB69DD
:10148000002B07D07B68DB69202B03D0AA213848CA
:1014900011F0D1F87B681B6A002B12D07B681B6AA5
:1014A000B3F5805F0DD07B681B6AB3F5005F08D091
:1014B0007B681B6AB3F5405F03D0AB212C4811F069
:1014C000BAF87B685B68002B1FD07B685B68012BD8
:1014D0001BD07B685B68022B17D07B685B68032B93
:1014E00013D07B685B68042B0FD07B685B68052B8F
:1014F0000BD07B685B68062B07D07B685B68072B8B
:1015000003D0AD211A4811F096F87B681B681A4683
:10151000184B9A4236D87B681B681A46164B134400
:10152000164AA2FB03231B099A007B685A647B6856
:10153000134A1A6435E000BF080002401C00024054
:101540003000024044000240580002406C0002405B
:1015500080000240080402401C04024030040240A3
:1015600044040240580402406C04024080040240DB
:10157000F4A7010807040240F8FFFDBFCDCCCCCC96
:10158000000002407B681B681A46424B1344424AE3
:10159000A2FB03231B099A007B685A647B683F4ABD
:1015A0001A647B68022283F825207B681B681B680D
:1015B000FB60FB6823F4FF4323F07003FB607B6850
:1015C0009A687B68DB681A437B681B691A437B68EF
:1015D0005B691A437B689B691A437B68DB691A4322
:1015E0007B681B6A1343FA681343FB607B681B68C4
:1015F000FA681A607B689B68B3F5804F39D07B68C6
:101600001B6C274A93421AD1264B1A687B685B6C85
:1016100003F01C030F2101FA03F3DB4321491340BC
:101620000B60204B1A687B6859687B685B6C03F021
:101630001C0301FA03F31B4913430B6019E01A4B17
:101640001A687B685B6C03F01C030F2101FA03F33B
:10165000DB43154913400B60134B1A687B685968CC
:101660007B685B6C03F01C0301FA03F30E49134320
:101670000B607B680022DA637B68012283F82520F7
:101680007B68002283F82420002318461037BD46CB
:1016900080BD00BFF8FBFDBFCDCCCCCC0004024028
:1016A00000000240A8000240A804024080B586B0B5
:1016B00000AFF860B9607A603B600023FB753B685F
:1016C000002B03D03B68B3F5803F04D34FF4EF7198
:1016D0002C4810F0B0FFFB6893F82430012B01D1A7
:1016E00002234BE0FB68012283F82420FB6893F877
:1016F0002530DBB2012B3AD1FB68022283F825208A
:10170000FB680022DA63FB681B681A68FB681B68C9
:1017100022F001021A603B687A68B968F86800F044
:1017200061F9FB681B6B002B08D0FB681B681A680B
:10173000FB681B6842F00E021A600FE0FB681B6832
:101740001A68FB681B6822F004021A60FB681B68B9
:101750001A68FB681B6842F00A021A60FB681B6883
:101760001A68FB681B6842F001021A6005E0FB681A
:10177000002283F824200223FB75FB7D18461837CE
:10178000BD4680BDF4A7010880B485B000AF786085
:101790000023FB737B6893F82530DBB2022B08D063
:1017A0007B680422DA637B68002283F8242001230B
:1017B00022E07B681B681A687B681B6822F00E02B7
:1017C0001A607B681B681A687B681B6822F001023C
:1017D0001A607B685B6C03F01C027B681B6C012148
:1017E00001FA02F25A607B68012283F825207B68A7
:1017F000002283F82420FB7B18461437BD465DF891
:10180000047B704780B584B000AF78600023FB7321
:101810007B6893F82530DBB2022B05D07B6804226D
:10182000DA630123FB7329E07B681B681A687B6815
:101830001B6822F00E021A607B681B681A687B68BE
:101840001B6822F001021A607B685B6C03F01C02CB
:101850007B681B6C012101FA02F25A607B6801224D
:1018600083F825207B68002283F824207B689B6B0B
:10187000002B03D07B689B6B78689847FB7B1846EE
:101880001037BD4680BD80B584B000AF78607B68FE
:101890001B6C1B68FB607B681B681B68BB607B68FC
:1018A0005B6C03F01C0304229A40FB681340002B7E
:1018B00026D0BB6803F00403002B21D07B681B6893
:1018C0001B6803F02003002B07D17B681B681A6894
:1018D0007B681B6822F004021A607B685B6C03F073
:1018E0001C027B681B6C042101FA02F25A607B68BF
:1018F0001B6B002B71D07B681B6B786898476CE082
:101900007B685B6C03F01C0302229A40FB68134067
:10191000002B2ED0BB6803F00203002B29D07B687C
:101920001B681B6803F02003002B0BD17B681B682E
:101930001A687B681B6822F00A021A607B68012221
:1019400083F825207B685B6C03F01C027B681B6CB2
:10195000022101FA02F25A607B68002283F82420F7
:101960007B68DB6A002B38D07B68DB6A7868984735
:1019700033E07B685B6C03F01C0308229A40FB6831
:101980001340002B2AD0BB6803F00803002B25D09E
:101990007B681B681A687B681B6822F00E021A605D
:1019A0007B685B6C03F01C027B681B6C012101FAF5
:1019B00002F25A607B680122DA637B68012283F8B5
:1019C00025207B68002283F824207B685B6B002B3A
:1019D00004D07B685B6B7868984700BF00BF103706
:1019E000BD4680BD80B485B000AFF860B9607A6054
:1019F0003B60FB685B6C03F01C02FB681B6C012105
:101A000001FA02F25A60FB681B683A685A60FB6888
:101A10009B68102B08D1FB681B687A689A60FB688A
:101A20001B68BA68DA6007E0FB681B68BA689A60EE
:101A3000FB681B687A68DA6000BF1437BD465DF842
:101A4000047B704780B586B000AF786039600023B2
:101A50007B617B68B3F1904F23D07B68414A93420E
:101A60001FD07B68404A93421BD07B683F4A934219
:101A700017D07B683E4A934213D07B683D4A93421D
:101A80000FD07B683C4A93420BD07B683B4A934221
:101A900007D07B683A4A934203D0B321394810F00B
:101AA000CAFD3B681B689BB2002B05D03B681B68D6
:101AB0001B0C1B04002B03D0B421324810F0BBFDDB
:101AC0003B685B68002B39D03B685B68012B35D0E5
:101AD0003B685B68112B31D03B685B68022B2DD0D3
:101AE0003B685B68122B29D03B685B68264A9342AF
:101AF00024D03B685B68254A93421FD03B685B68F3
:101B0000234A93421AD03B685B68224A934215D01D
:101B10003B685B68204A934210D03B685B681F4A71
:101B200093420BD03B685B68032B07D03B685B6834
:101B30000B2B03D0B521134810F07DFD3B689B684B
:101B4000002B00F0EE813B689B68012B00F0E981DF
:101B50003B689B68022B00F0E481B621094810F035
:101B60006AFDDEE10004004800080048000C00485F
:101B7000001000480014004800180048001C0048ED
:101B8000002000482CA801080000111000002110BE
:101B9000000031100000121000002210000032106E
:101BA0003B681A6801217B6901FA03F31340FB606B
:101BB000FB68002B00F0B2813B685B68012B0BD007
:101BC0003B685B68022B07D03B685B68112B03D036
:101BD0003B685B68122B44D13B68DB68002B0FD05D
:101BE0003B68DB68012B0BD03B68DB68022B07D01E
:101BF0003B68DB68032B03D0C6218B4810F01BFD2C
:101C00007B689B683B617B695B00032202FA03F3FC
:101C1000DB433A6913403B613B68DA687B695B00F0
:101C200002FA03F33A6913433B617B683A699A60AD
:101C30007B685B683B6101227B6902FA03F3DB434B
:101C40003A6913403B613B685B681B0903F0010282
:101C50007B6902FA03F33A6913433B617B683A6993
:101C60005A607B68DB683B617B695B00032202FA98
:101C700003F3DB433A6913403B613B689A687B6935
:101C80005B0002FA03F33A6913433B617B683A69EC
:101C9000DA603B685B68022B03D03B685B68122B01
:101CA00053D17B68B3F1904F23D07B685F4A934256
:101CB0001FD07B685E4A93421BD07B685D4A93428B
:101CC00017D07B685C4A934213D07B685B4A93428F
:101CD0000FD07B685A4A93420BD07B68594A934293
:101CE00007D07B68584A934203D0EC214E4810F04D
:101CF000A2FC3B681B690F2B03D9ED214A4810F069
:101D00009AFC7B69DA087B68083253F822303B6121
:101D10007B6903F007039B000F2202FA03F3DB4306
:101D20003A6913403B613B681A697B6903F007031A
:101D30009B0002FA03F33A6913433B617B69DA08BB
:101D40007B680832396943F822107B681B683B6165
:101D50007B695B00032202FA03F3DB433A69134019
:101D60003B613B685B6803F003027B695B0002FA3E
:101D700003F33A6913433B617B683A691A603B6835
:101D80005B6803F08053002B00F0C8802F4B1B6E64
:101D90002E4A43F0010313662C4B1B6E03F0010324
:101DA000BB60BB682A4A7B699B08023352F8233028
:101DB0003B617B6903F003039B000F2202FA03F3EC
:101DC000DB433A6913403B617B68B3F1904F41D0EC
:101DD0007B68164A934225D07B68154A93421FD0F0
:101DE0007B68144A934219D07B68134A934213D0FC
:101DF0007B68124A93420DD07B68114A934207D008
:101E00007B68104A934201D1072324E0082322E093
:101E1000062320E005231EE004231CE003231AE030
:101E2000022318E0012316E02CA801080004004852
:101E300000080048000C004800100048001400484A
:101E400000180048001C0048002000480010024014
:101E50000000014000237A6902F0030292009340DF
:101E60003A6913433B6135497B699B0802333A6900
:101E700041F82320324B1B683B61FB68DB433A6926
:101E800013403B613B685B6803F48033002B03D055
:101E90003A69FB6813433B61294A3B691360284B4D
:101EA0005B683B61FB68DB433A6913403B613B681D
:101EB0005B6803F40033002B03D03A69FB681343DB
:101EC0003B611F4A3B6953601D4B9B683B61FB684C
:101ED000DB433A6913403B613B685B6803F4801362
:101EE000002B03D03A69FB6813433B61144A3B69FA
:101EF0009360134BDB683B61FB68DB433A6913403B
:101F00003B613B685B6803F40013002B03D03A6924
:101F1000FB6813433B610A4A3B69D3607B69013329
:101F20007B613B681A687B6922FA03F3002B7FF41C
:101F300037AE00BF00BF1837BD4680BD000001406E
:101F40000004014080B584B000AF78600B467B8010
:101F50007B88002B04D07B881B0C1B04002B04D037
:101F60004FF4C971094810F066FB7B681A697B88D9
:101F70001340002B02D00123FB7301E00023FB730D
:101F8000FB7B18461037BD4680BD00BF2CA801085A
:101F900080B582B000AF78600B467B8013467B70C3
:101FA0007B88002B04D07B881B0C1B04002B04D0E7
:101FB0004FF4D9710D4810F03EFB7B78002B07D011
:101FC0007B78012B04D040F2B311084810F033FBAA
:101FD0007B78002B03D07A887B689A6102E07A884C
:101FE0007B689A6200BF0837BD4680BD2CA80108F7
:101FF00080B582B000AF78607B68002B01D10123EF
:1020000009E17B681B68864A934213D07B681B6892
:10201000844A93420ED07B681B68834A934209D05E
:102020007B681B68814A934204D040F2E5118048E6
:1020300010F001FB7B689B68B3F5806F04D34FF40D
:10204000F3717B4810F0F7FA7B68DB68012B08D04E
:102050007B68DB68022B04D040F2E711744810F073
:10206000EAFA7B681B69002B09D07B681B69B3F512
:10207000004F04D04FF4F4716D4810F0DCFA7B6827
:102080005B69FF2B04D940F2E911694810F0D3FADB
:102090007B689B69002B20D07B689B69012B1CD03F
:1020A0007B689B69022B18D07B689B69032B14D03B
:1020B0007B689B69042B10D07B689B69052B0CD037
:1020C0007B689B69062B08D07B689B69072B04D033
:1020D0004FF4F571564810F0AEFA7B68DB69002BBF
:1020E00009D07B68DB69B3F5002F04D040F2EB1117
:1020F0004F4810F0A0FA7B681B6A002B09D07B6860
:102100001B6AB3F5003F04D04FF4F671484810F055
:1021100092FA7B6893F84130DBB2002B06D17B68E2
:10212000002283F84020786810F094FB7B6824221A
:1021300083F841207B681B681A687B681B6822F063
:1021400001021A607B685A687B681B6822F0706223
:102150001A617B681B689A687B681B6822F40042DE
:102160009A607B68DB68012B07D17B689A687B6883
:102170001B6842F400429A6006E07B689A687B68BC
:102180001B6842F404429A607B68DB68022B04D12E
:102190007B681B684FF400625A607B681B685B6851
:1021A0007A68126843F0007343F4004353607B681D
:1021B0001B68DA687B681B6822F40042DA607B687F
:1021C0001A697B685B6942EA03017B689B691A02B2
:1021D0007B681B680A43DA607B68D9697B681A6A86
:1021E0007B681B680A431A607B681B681A687B68F7
:1021F0001B6842F001021A607B6800225A647B6807
:10220000202283F841207B6800221A637B68002229
:1022100083F84220002318460837BD4680BD00BF22
:102220000054004000580040005C00400084004022
:1022300068A8010880B588B002AFF8607A601A46D5
:102240000B467B8113463B81FB6893F84130DBB240
:10225000202B40F0DA80FB6893F84030012B01D14D
:102260000223D3E0FB68012283F84020FEF70AFF37
:1022700078617B690093192301224FF40041F868CB
:1022800000F0D8FC0346002B01D00123BEE0FB6820
:10229000212283F84120FB68102283F84220FB684A
:1022A00000225A64FB687A685A62FB683A895A8548
:1022B000FB6800225A63FB685B8D9BB2FF2B0ED933
:1022C000FB68FF221A85FB681B8DDAB27989514BB6
:1022D00000934FF08073F86800F03AFE6CE0FB6802
:1022E0005B8D9AB2FB681A85FB681B8DDAB279891F
:1022F000484B00934FF00073F86800F029FE5BE054
:102300007A69396AF86800F0D5FC0346002B01D0E1
:1023100001237BE0FB685B6A1A78FB681B689A62A2
:10232000FB685B6A5A1CFB685A62FB685B8D9BB258
:10233000013B9AB2FB685A85FB681B8D013B9AB240
:10234000FB681A85FB685B8D9BB2002B34D0FB6861
:102350001B8D002B30D17B6900933B6A00228021CA
:10236000F86800F067FC0346002B01D001234DE024
:10237000FB685B8D9BB2FF2B0ED9FB68FF221A8591
:10238000FB681B8DDAB27989002300934FF08073CC
:10239000F86800F0DDFD0FE0FB685B8D9AB2FB682A
:1023A0001A85FB681B8DDAB27989002300934FF000
:1023B0000073F86800F0CCFDFB685B8D9BB2002BCE
:1023C0009ED17A69396AF86800F0B4FC0346002BA4
:1023D00001D001231AE0FB681B682022DA61FB6848
:1023E0001B685968FB681A680B4B0B405360FB680D
:1023F000202283F84120FB68002283F84220FB68FA
:10240000002283F84020002300E0022318461837FA
:10241000BD4680BD0020008000E800FE80B588B089
:1024200002AFF8607A601A460B467B8113463B8107
:10243000FB6893F84130DBB2202B40F0DB80FB6877
:1024400093F84030012B01D10223D4E0FB68012234
:1024500083F84020FEF716FE78617B69009319230C
:1024600001224FF40041F86800F0E4FB0346002B22
:1024700001D00123BFE0FB68222283F84120FB68E2
:10248000102283F84220FB6800225A64FB687A68B5
:102490005A62FB683A895A85FB6800225A63FB68D6
:1024A0005B8D9BB2FF2B0ED9FB68FF221A85FB6860
:1024B0001B8DDAB27989524B00934FF08073F86824
:1024C00000F046FD6DE0FB685B8D9AB2FB681A85F3
:1024D000FB681B8DDAB27989494B00934FF000738A
:1024E000F86800F035FD5CE07A69396AF86800F058
:1024F0005DFC0346002B01D001237CE0FB681B68D8
:102500005A6AFB685B6AD2B21A70FB685B6A5A1C33
:10251000FB685A62FB681B8D013B9AB2FB681A8507
:10252000FB685B8D9BB2013B9AB2FB685A85FB68E6
:102530005B8D9BB2002B34D0FB681B8D002B30D100
:102540007B6900933B6A00228021F86800F072FBEF
:102550000346002B01D001234DE0FB685B8D9BB24D
:10256000FF2B0ED9FB68FF221A85FB681B8DDAB2A0
:102570007989002300934FF08073F86800F0E8FC3D
:102580000FE0FB685B8D9AB2FB681A85FB681B8DB8
:10259000DAB27989002300934FF00073F86800F0F5
:1025A000D7FCFB685B8D9BB2002B9DD17A69396AA1
:1025B000F86800F0BFFB0346002B01D001231AE0AE
:1025C000FB681B682022DA61FB681B685968FB689E
:1025D0001A680C4B0B405360FB68202283F84120A3
:1025E000FB68002283F84220FB68002283F8402029
:1025F000002300E0022318461837BD4680BD00BF07
:102600000024008000E800FE80B588B002AFF860CA
:10261000084611461A4603467B810B463B8113460A
:10262000FB80FB88012B07D0FB88022B04D040F6EF
:10263000FB0184480FF0FFFFFB6893F84130DBB2E9
:10264000202B40F0F9803B6A002B02D0BB8C002B82
:1026500005D1FB684FF400725A640123EDE0FB687A
:1026600093F84030012B01D10223E6E0FB68012200
:1026700083F84020FEF706FD78617B6900931923FB
:1026800001224FF40041F86800F0D4FA0346002B11
:1026900001D00123D1E0FB68212283F84120FB68AF
:1026A000402283F84220FB6800225A64FB683A6AA1
:1026B0005A62FB68BA8C5A85FB6800225A63F88814
:1026C0003A8979897B690193BB6A00930346F8686C
:1026D00000F0E4F90346002B05D0FB68002283F8E4
:1026E00040200123A9E0FB685B8D9BB2FF2B0ED934
:1026F000FB68FF221A85FB681B8DDAB279890023FB
:1027000000934FF08073F86800F022FC0FE0FB6844
:102710005B8D9AB2FB681A85FB681B8DDAB27989EA
:10272000002300934FF00073F86800F011FC7A6901
:10273000B96AF86800F0BEFA0346002B01D0012305
:102740007BE0FB685B6A1A78FB681B689A62FB682F
:102750005B6A5A1CFB685A62FB685B8D9BB2013B4B
:102760009AB2FB685A85FB681B8D013B9AB2FB68E5
:102770001A85FB685B8D9BB2002B34D0FB681B8DE8
:10278000002B30D17B690093BB6A00228021F8685E
:1027900000F050FA0346002B01D001234DE0FB6806
:1027A0005B8D9BB2FF2B0ED9FB68FF221A85FB685D
:1027B0001B8DDAB27989002300934FF08073F8689B
:1027C00000F0C6FB0FE0FB685B8D9AB2FB681A85D0
:1027D000FB681B8DDAB27989002300934FF00073F8
:1027E000F86800F0B5FBFB685B8D9BB2002B9ED1B7
:1027F0007A69B96AF86800F09DFA0346002B01D0A7
:1028000001231AE0FB681B682022DA61FB681B6861
:102810005968FB681A680C4B0B405360FB68202218
:1028200083F84120FB68002283F84220FB680022E5
:1028300083F84020002300E0022318461837BD46E5
:1028400080BD00BF68A8010800E800FE80B588B020
:1028500002AFF860084611461A4603467B810B46D4
:102860003B811346FB80FB88012B07D0FB88022BA2
:1028700004D040F6821186480FF0DDFEFB6893F825
:102880004130DBB2202B40F0FD803B6A002B02D0B0
:10289000BB8C002B05D1FB684FF400725A640123F6
:1028A000F1E0FB6893F84030012B01D10223EAE00C
:1028B000FB68012283F84020FEF7E4FB78617B6926
:1028C0000093192301224FF40041F86800F0B2F997
:1028D0000346002B01D00123D5E0FB68222283F8B8
:1028E0004120FB68402283F84220FB6800225A64A2
:1028F000FB683A6A5A62FB68BA8C5A85FB68002208
:102900005A63F8883A8979897B690193BB6A009395
:102910000346F86800F016F90346002B05D0FB6863
:10292000002283F840200123ADE0FB685B8D9BB261
:10293000FF2B0ED9FB68FF221A85FB681B8DDAB2CC
:102940007989544B00934FF08073F86800F000FBD6
:102950000FE0FB685B8D9AB2FB681A85FB681B8DE4
:10296000DAB279894B4B00934FF00073F86800F0AE
:10297000EFFA7B690093BB6A00220421F86800F03B
:1029800059F90346002B01D001237CE0FB681B684A
:102990005A6AFB685B6AD2B21A70FB685B6A5A1C9F
:1029A000FB685A62FB681B8D013B9AB2FB681A8573
:1029B000FB685B8D9BB2013B9AB2FB685A85FB6852
:1029C0005B8D9BB2002B34D0FB681B8D002B30D16C
:1029D0007B690093BB6A00228021F86800F02AF925
:1029E0000346002B01D001234DE0FB685B8D9BB2B9
:1029F000FF2B0ED9FB68FF221A85FB681B8DDAB20C
:102A00007989002300934FF08073F86800F0A0FAF2
:102A10000FE0FB685B8D9AB2FB681A85FB681B8D23
:102A2000DAB27989002300934FF00073F86800F060
:102A30008FFAFB685B8D9BB2002B9AD17A69B96AD9
:102A4000F86800F077F90346002B01D001231AE063
:102A5000FB681B682022DA61FB681B685968FB6809
:102A60001A680D4B0B405360FB68202283F841200D
:102A7000FB68002283F84220FB68002283F8402094
:102A8000002300E0022318461837BD4680BD00BF72
:102A900068A801080024008000E800FE80B586B028
:102AA00002AFF860084611461A4603467B810B4682
:102AB0003B811346FB80FB88DAB27989204B009377
:102AC0004FF08073F86800F043FAFA69B969F86862
:102AD00000F0F0F80346002B01D001232CE0FB8826
:102AE000012B05D13B89DAB2FB681B689A6215E0BD
:102AF0003B891B0A9BB2DAB2FB681B689A62FA69CF
:102B0000B969F86800F0D6F80346002B01D001231C
:102B100012E03B89DAB2FB681B689A62FB6900939A
:102B2000BB6900228021F86800F084F80346002B7E
:102B300001D0012300E0002318461037BD4680BDB8
:102B40000020008080B586B002AFF86008461146CC
:102B50001A4603467B810B463B811346FB80FB886C
:102B6000DAB27989204B00930023F86800F0F0F97D
:102B7000FA69B969F86800F09DF80346002B01D0A6
:102B800001232CE0FB88012B05D13B89DAB2FB68DD
:102B90001B689A6215E03B891B0A9BB2DAB2FB689C
:102BA0001B689A62FA69B969F86800F083F803460D
:102BB000002B01D0012312E03B89DAB2FB681B68CD
:102BC0009A62FB690093BB6900224021F86800F01B
:102BD00031F80346002B01D0012300E00023184602
:102BE0001037BD4680BD00BF0020008080B483B098
:102BF00000AF78607B681B689B6903F00203022BBF
:102C000003D17B681B6800229A627B681B689B6902
:102C100003F00103012B07D07B681B689A697B686E
:102C20001B6842F001029A6100BF0C37BD465DF897
:102C3000047B704780B584B000AFF860B9603B603A
:102C40001346FB7122E03B68B3F1FF3F1ED0FEF755
:102C500019FA0246BB69D31A3A689A4202D33B6812
:102C6000002B13D1FB685B6C43F02002FB685A64B5
:102C7000FB68202283F84120FB68002283F8422071
:102C8000FB68002283F8402001230FE0FB681B68EB
:102C90009A69BB681340BA689A420CBF01230023AB
:102CA000DBB21A46FB799A42CDD000231846103782
:102CB000BD4680BD80B584B000AFF860B9607A6071
:102CC0002CE07A68B968F86800F0DCF80346002B5D
:102CD00001D001232AE0BB68B3F1FF3F1ED0FEF70D
:102CE000D1F902467B68D31ABA689A4202D3BB680C
:102CF000002B13D1FB685B6C43F02002FB685A6425
:102D0000FB68202283F84120FB68002283F84220E0
:102D1000FB68002283F84020012307E0FB681B6862
:102D20009B6903F00203022BCBD100231846103716
:102D3000BD4680BD80B584B000AFF860B9607A60F0
:102D400028E07A68B968F86800F09CF80346002B20
:102D500001D0012326E0FEF795F902467B68D31ADD
:102D6000BA689A4202D3BB68002B13D1FB685B6C34
:102D700043F02002FB685A64FB68202283F841205C
:102D8000FB68002283F84220FB68002283F8402081
:102D9000012307E0FB681B689B6903F02003202BDD
:102DA000CFD1002318461037BD4680BD80B584B012
:102DB00000AFF860B9607A6055E07A68B968F86881
:102DC00000F060F80346002B01D0012353E0FB68BC
:102DD0001B689B6903F02003202B29D1FB681B682B
:102DE0009B6903F00403042B05D1FB681B8D002BAA
:102DF00001D000233FE0FB681B682022DA61FB68FA
:102E00001B685968FB681A681D4B0B405360FB68D0
:102E100000225A64FB68202283F84120FB680022CC
:102E200083F84220FB68002283F84020012322E03F
:102E3000FEF728F902467B68D31ABA689A4202D391
:102E4000BB68002B0FD1FB685B6C43F02002FB6872
:102E50005A64FB68202283F84120FB68002283F833
:102E60004020012307E0FB681B689B6903F0040313
:102E7000042BA2D1002318461037BD4680BD00BFE9
:102E800000E800FE80B584B000AFF860B9607A60F9
:102E9000FB681B689B6903F01003102B51D122E0E3
:102EA000BB68B3F1FF3F1ED0FEF7ECF802467B682B
:102EB000D31ABA689A4202D3BB68002B13D1FB68BD
:102EC0005B6C43F02002FB685A64FB68202283F8A5
:102ED0004120FB68002283F84220FB68002283F82F
:102EE000402001232EE0FB681B689B6903F0200350
:102EF000202BD5D1FB681B681022DA61FB681B68A8
:102F00002022DA61F868FFF771FEFB681B685968D8
:102F1000FB681A680D4B0B405360FB685B6C43F019
:102F20000402FB685A64FB68202283F84120FB6896
:102F3000002283F84220FB68002283F8402001230E
:102F400000E0002318461037BD4680BD00E800FEB3
:102F500080B584B000AFF8607B600B467B81134680
:102F60007B72FB681B682D4A934213D0FB681B6879
:102F70002B4A93420ED0FB681B682A4A934209D021
:102F8000FB681B68284A934204D041F63911274850
:102F90000FF051FB7B68B3F1807F0BD07B68B3F1FE
:102FA000007F07D07B68002B04D041F63A111F4800
:102FB0000FF041FBBB691E4A93420FD0BB691D4A0B
:102FC00093420BD0BB691C4A934207D0BB69002BCC
:102FD00004D041F63B1115480FF02DFBFB681B6830
:102FE0005A68BB695B0D03F48061144B0B43DB43F0
:102FF00002EA03017B89C3F309027B7A1B0403F411
:103000007F031A437B681A43BB691A43FB681B683A
:103010000A435A6000BF1037BD4680BD00540040CF
:1030200000580040005C00400084004068A801088F
:10303000004000800024008000200080FF63FF0328
:1030400080B582B000AF786039607B681B68324A17
:10305000934212D07B681B68304A93420DD07B6844
:103060001B682F4A934208D07B681B682D4A934205
:1030700003D064212C480FF0DEFA3B68002B07D008
:103080003B68B3F5805F03D0652127480FF0D3FA82
:103090007B6893F84130DBB2202B38D17B6893F802
:1030A0004030012B01D1022332E07B68012283F8FA
:1030B00040207B68242283F841207B681B681A68C3
:1030C0007B681B6822F001021A607B681B681A6823
:1030D0007B681B6822F480521A607B681B68196841
:1030E0007B681B683A680A431A607B681B681A6829
:1030F0007B681B6842F001021A607B68202283F81B
:1031000041207B68002283F84020002300E0022356
:1031100018460837BD4680BD0054004000580040A6
:10312000005C004000840040A0A8010880B584B085
:1031300000AF786039607B681B68314A934212D0D7
:103140007B681B682F4A93420DD07B681B682E4A10
:10315000934208D07B681B682C4A934203D092218B
:103160002B480FF068FA3B680F2B03D993212848AE
:103170000FF061FA7B6893F84130DBB2202B39D134
:103180007B6893F84030012B01D1022333E07B6848
:10319000012283F840207B68242283F841207B6849
:1031A0001B681A687B681B6822F001021A607B6842
:1031B0001B681B68FB60FB6823F47063FB603B6863
:1031C0001B02FA681343FB607B681B68FA681A608D
:1031D0007B681B681A687B681B6842F001021A60F2
:1031E0007B68202283F841207B68002283F84020FE
:1031F000002300E0022318461037BD4680BD00BF03
:103200000054004000580040005C00400084004032
:10321000A0A8010880B584B000AF78607A68244B1C
:103220001340234A934227D07B6803F48033002B5A
:1032300027D17B6803F40033002B22D17B6803F491
:103240008023002B1DD17B6803F40023002B18D1B1
:103250007B6803F48013002B13D17B6803F4001305
:10326000002B0ED17B6803F48003002B09D17B680F
:1032700003F40003002B04D14FF48E710D480FF0BE
:10328000DAF90D4B1B6E0C4A43F0010313660A4B2F
:103290001B6E03F00103FB60FB68084B5A6807498B
:1032A0007B6813434B6000BF1037BD4680BD00BF35
:1032B0000000AAAAA0A801080010024000000140D6
:1032C00080B584B000AF78607B68002B01D101230A
:1032D00073E07B681B683B4A934203D0B3213A48B2
:1032E0000FF0A9F97B685B68002B1BD07B685B68DB
:1032F000012B17D07B685B68022B13D07B685B685F
:10330000032B0FD07B685B68042B0BD07B685B685A
:10331000052B07D07B685B68062B03D0B4212A48B5
:103320000FF089F97B689B68B3F5805F03D3B52103
:1033300025480FF080F97B68DB68B3F5805F03D325
:10334000B62121480FF077F97B681B684CF6CC4218
:103350001A607B681B6845F255521A607B681B68CF
:103360007A6852685A607B681B687A6892689A60CB
:10337000FDF788FEF86008E0FDF784FE0246FB6872
:10338000D31A302B01D9032317E07B681B68DB6855
:10339000002BF1D17B681B681A697B68DB689A4255
:1033A00005D07B681B687A68D2681A6104E07B6884
:1033B0001B684AF6AA221A60002318461037BD4639
:1033C00080BD00BF00300040DCA8010880B483B09D
:1033D00000AF78607B681B684AF6AA221A60002357
:1033E00018460C37BD465DF8047B704780B400AFCB
:1033F000054B1B68044A43F48073136000BFBD464D
:103400005DF8047B704700BF0070004080B400AFDF
:10341000044B1B6803F4C0631846BD465DF8047B8B
:10342000704700BF0070004080B584B000AF786086
:103430007B68B3F5007F07D07B68B3F5806F03D05E
:10344000A82126480FF0F7F87B68B3F5007F30D14C
:10345000234B1B6803F4C063B3F5007F38D0204BC7
:103460001B6823F4C0631E4A43F4007313601D4BB2
:103470001B68322202FB03F31B4AA2FB03239B0CB3
:103480000133FB6002E0FB68013BFB60144B5B69AE
:1034900003F48063B3F5806F02D1FB68002BF2D197
:1034A0000F4B5B6903F48063B3F5806F10D1032386
:1034B0000FE00B4B1B6803F4C063B3F5806F07D0BC
:1034C000074B1B6823F4C063054A43F48063136011
:1034D000002318461037BD4680BD00BF18A901085B
:1034E00000700040A803002083DE1B4380B588B035
:1034F00000AF78607B68002B02D1012300F06BBD28
:103500007B681B68002B28D07B681B6803F00103D5
:10351000002B22D17B681B6803F00203002B1CD117
:103520007B681B6803F02003002B16D17B681B68A7
:1035300003F01003002B10D17B681B6803F0080315
:10354000002B0AD17B681B6803F00403002B04D115
:103550004FF4D171A3480FF06EF8A34B9B6803F0B2
:103560000C03BB61A04BDB6803F003037B617B684A
:103570001B6803F01003002B00F03F817B689B6900
:10358000002B08D07B689B69012B04D040F2AB1163
:1035900094480FF050F87B68DB69FF2B04D94FF497
:1035A000D67190480FF047F87B681B6A002B30D02B
:1035B0007B681B6A102B2CD07B681B6A202B28D0C1
:1035C0007B681B6A302B24D07B681B6A402B20D081
:1035D0007B681B6A502B1CD07B681B6A602B18D041
:1035E0007B681B6A702B14D07B681B6A802B10D001
:1035F0007B681B6A902B0CD07B681B6AA02B08D0C1
:103600007B681B6AB02B04D040F2AD1175480FF0F7
:1036100012F8BB69002B07D0BB690C2B40F08F80E0
:103620007B69012B40F08B806F4B1B6803F002031A
:10363000002B06D07B689B69002B02D1012300F090
:10364000CABC7B681A6A684B1B6803F00803002B2E
:1036500004D0654B1B6803F0F00305E0624BD3F820
:1036600094301B0903F0F003934224D27B681B6A59
:10367000184600F03FFF0346002B02D0012300F064
:10368000AABC594B1B68584A43F008031360564BB9
:103690001B6823F0F0027B681B6A534913430B60DD
:1036A000514B5B6823F47F427B68DB691B024E4908
:1036B00013434B6026E04C4B1B684B4A43F0080316
:1036C0001360494B1B6823F0F0027B681B6A464974
:1036D00013430B60444B5B6823F47F427B68DB69D8
:1036E0001B02414913434B60BB69002B0AD17B6825
:1036F0001B6A184600F0FEFE0346002B02D0012391
:1037000000F069BC00F0F0FD0246374B9B681B09D6
:1037100003F00F033549CB5C03F01F0322FA03F3D8
:10372000334A1360334B1B6818460FF02FFB0346D8
:10373000FB73FB7B002B5FD0FB7B00F04CBC7B68FA
:103740009B69002B33D0284B1B68274A43F00103A9
:103750001360FDF797FC386109E0FDF793FC024622
:103760003B69D31A022B02D9032300F034BC1E4B51
:103770001B6803F00203002BEFD01B4B1B681A4A97
:1037800043F008031360184B1B6823F0F0027B68BA
:103790001B6A154913430B60134B5B6823F47F428C
:1037A0007B68DB691B02104913434B6025E00E4B1D
:1037B0001B680D4A23F001031360FDF763FC3861B9
:1037C00009E0FDF75FFC02463B69D31A022B02D9E0
:1037D000032300F000BC044B1B6803F00203002B22
:1037E000EFD10AE054A901080010024004C4010806
:1037F000A80300200000002000BF7B681B6803F0C6
:103800000103002B7ED07B685B68002B0ED07B68A9
:103810005B68B3F5803F09D07B685B68B3F5A02F88
:1038200004D040F219219B480EF005FFBB69082B1C
:1038300005D0BB690C2B0ED17B69032B0BD1964BAA
:103840001B6803F40033002B5BD07B685B68002BA4
:1038500057D10123BFE37B685B68B3F5803F06D196
:103860008D4B1B688C4A43F4803313601DE07B68EA
:103870005B68B3F5A02F0CD1874B1B68864A43F4D5
:1038800080231360844B1B68834A43F480331360A6
:103890000BE0814B1B68804A23F4803313607E4B1E
:1038A0001B687D4A23F4802313607B685B68002BD0
:1038B00013D0FDF7E7FB386108E0FDF7E3FB0246B4
:1038C0003B69D31A642B01D9032384E3724B1B6831
:1038D00003F40033002BF0D014E0FDF7D3FB386184
:1038E00008E0FDF7CFFB02463B69D31A642B01D9F0
:1038F000032370E3684B1B6803F40033002BF0D103
:1039000000E000BF7B681B6803F00203002B77D048
:103910007B68DB68002B09D07B68DB68B3F5807FB0
:1039200004D04FF413715B480EF085FE7B681B6971
:103930007F2B04D940F24D2156480EF07CFEBB6926
:10394000042B05D0BB690C2B19D17B69022B16D136
:10395000514B1B6803F48063002B05D07B68DB6848
:10396000002B01D1012336E34B4B5B6823F0FE4271
:103970007B681B691B06484913434B6040E07B682A
:10398000DB68002B23D0444B1B68434A43F480730D
:103990001360FDF777FB386108E0FDF773FB024623
:1039A0003B69D31A022B01D9032314E33A4B1B685A
:1039B00003F48063002BF0D0374B5B6823F0FE42AA
:1039C0007B681B691B06344913434B6018E0324B7C
:1039D0001B68314A23F480731360FDF753FB386191
:1039E00008E0FDF74FFB02463B69D31A022B01D9D1
:1039F0000323F0E2284B1B6803F48063002BF0D113
:103A00007B681B6803F00803002B4ED07B685B6962
:103A1000002B08D07B685B69012B04D040F28D211C
:103A20001C480EF008FE7B685B69002B1CD01A4B0B
:103A3000D3F89430184A43F00103C2F89430FDF7EC
:103A400021FB386108E0FDF71DFB02463B69D31AF4
:103A5000022B01D90323BEE20F4BD3F8943003F0BD
:103A60000203002BEFD020E00B4BD3F894300A4A2E
:103A700023F00103C2F89430FDF704FB38610DE038
:103A8000FDF700FB02463B69D31A022B06D903233C
:103A9000A1E200BF54A9010800100240844BD3F8F2
:103AA000943003F00203002BEAD17B681B6803F01B
:103AB0000403002B00F0B2800023FB777B689B6837
:103AC000002B0CD07B689B68012B08D07B689B681F
:103AD000052B04D04FF4387176480EF0ACFD744BD2
:103AE0009B6D03F08053002B0DD1714B9B6D704A81
:103AF00043F0805393656E4B9B6D03F08053BB6026
:103B0000BB680123FB776C4B1B6803F48073002BAD
:103B100018D1694B1B68684A43F480731360FDF742
:103B2000B1FA386108E0FDF7ADFA02463B69D31AF5
:103B3000022B01D903234EE25F4B1B6803F4807311
:103B4000002BF0D07B689B68012B08D1584BD3F831
:103B50009030574A43F00103C2F8903024E07B686C
:103B60009B68052B10D1524BD3F89030504A43F04C
:103B70000403C2F890304E4BD3F890304C4A43F0D7
:103B80000103C2F890300FE0494BD3F89030484A17
:103B900023F00103C2F89030454BD3F89030444AEB
:103BA00023F00403C2F890307B689B68002B16D08A
:103BB000FDF768FA38610AE0FDF764FA02463B69EE
:103BC000D31A41F28832934201D9032303E2384BDE
:103BD000D3F8903003F00203002BEDD015E0FDF791
:103BE00051FA38610AE0FDF74DFA02463B69D31AF3
:103BF00041F28832934201D90323ECE12C4BD3F8F4
:103C0000903003F00203002BEDD1FB7F012B05D197
:103C1000274B9B6D264A23F0805393657B681B6876
:103C200003F02003002B50D07B685B6A002B08D088
:103C30007B685B6A012B04D040F245311D480EF0D1
:103C4000FAFC7B685B6A002B1CD0194BD3F89830C8
:103C5000174A43F00103C2F89830FDF713FA3861B0
:103C600008E0FDF70FFA02463B69D31A022B01D98F
:103C70000323B0E10E4BD3F8983003F00203002B7E
:103C8000EFD022E00A4BD3F89830094A23F0010321
:103C9000C2F89830FDF7F6F938610FE0FDF7F2F958
:103CA00002463B69D31A022B08D9032393E100BFD4
:103CB0000010024054A9010800700040A54BD3F841
:103CC000983003F00203002BE8D17B689B6A002B3D
:103CD0000CD07B689B6A012B08D07B689B6A022B07
:103CE00004D040F26E319C480EF0A5FC7B689B6AC4
:103CF000002B00F06F817B689B6A022B40F03781BC
:103D00007B68DB6A002B10D07B68DB6A012B0CD050
:103D10007B68DB6A022B08D07B68DB6A032B04D04C
:103D200040F276318C480EF086FC7B681B6B002BD2
:103D300003D07B681B6B082B04D940F2773186488F
:103D40000EF079FC7B685B6B072B03D97B685B6BA0
:103D5000562B04D94FF45E717F480EF06CFC7B68E3
:103D60009B6B012B03D97B689B6B1F2B04D940F203
:103D70007A3179480EF05FFC7B68DB6B022B10D048
:103D80007B68DB6B042B0CD07B68DB6B062B08D0CD
:103D90007B68DB6B082B04D04FF45F716E480EF02C
:103DA0004AFC7B681B6C022B10D07B681B6C042BBD
:103DB0000CD07B681B6C062B08D07B681B6C082B17
:103DC00004D040F27D3164480EF035FC614BDB6875
:103DD0007B617B6903F003027B68DB6A9A422CD12A
:103DE0007B6903F070027B681B6B013B1B019A42ED
:103DF00023D17B6903F4FE427B685B6B1B029A4212
:103E00001BD17B6903F078427B689B6BDB069A428F
:103E100013D17B6903F4C0027B68DB6B5B08013B59
:103E20005B059A4209D17B6903F0C0627B681B6C19
:103E30005B08013B5B069A426DD0BB690C2B68D0D6
:103E4000444B1B6803F08063002B05D1414B1B687A
:103E500003F08053002B01D00123BCE03D4B1B68D5
:103E60003C4A23F080731360FDF70CF9386108E0D9
:103E7000FDF708F902463B69D31A022B01D9032347
:103E8000A9E0344B1B6803F00073002BF0D1314BD9
:103E9000DA68324B13407A68D16A7A68126B013A59
:103EA000120111437A68526B120211437A68D26B85
:103EB0005208013A520511437A68126C5208013ACD
:103EC000520611437A68926BD2060A432149134382
:103ED000CB60204B1B681F4A43F0807313601D4B5F
:103EE000DB681C4A43F08073D360FDF7CBF8386180
:103EF00008E0FDF7C7F802463B69D31A022B01D947
:103F0000032368E0134B1B6803F00073002BF0D011
:103F100060E001235FE00F4B1B6803F00073002B90
:103F200058D10C4B1B680B4A43F080731360094B4C
:103F3000DB68084A43F08073D360FDF7A3F838616B
:103F40000EE0FDF79FF802463B69D31A022B07D912
:103F5000032340E00010024054A901088C809D0119
:103F60001F4B1B6803F00073002BEAD032E0BB69E3
:103F70000C2B2DD01A4B1B68194A23F08073136049
:103F8000174B1B6803F02053002B05D1144BDB6843
:103F9000134A23F00303D360114BDB68104A23F06C
:103FA000887323F48033D360FDF76CF8386108E040
:103FB000FDF768F802463B69D31A022B01D90323A7
:103FC00009E0074B1B6803F00073002BF0D101E000
:103FD000012300E0002318462037BD4680BD00BF06
:103FE0000010024080B584B000AF786039607B6813
:103FF000002B01D1012368E17B681B68002B03D0F3
:104000007B681B680F2B04D940F2624173480EF0A5
:1040100012FB3B68002B10D03B68012B0DD03B6896
:10402000022B0AD03B68032B07D03B68042B04D03B
:1040300040F2634169480EF0FEFA694B1B6803F0D9
:1040400007033A689A4210D9654B1B6823F00702B0
:1040500063493B6813430B60614B1B6803F0070324
:104060003A689A4201D001232FE17B681B6803F074
:104070000103002B61D07B685B68002B10D07B684C
:104080005B68012B0CD07B685B68022B08D07B68D7
:104090005B68032B04D040F27A4150480EF0CBFA13
:1040A0007B685B68032B07D14E4B1B6803F00073E2
:1040B000002B21D1012308E17B685B68022B07D12B
:1040C000484B1B6803F40033002B15D10123FCE09F
:1040D0007B685B68002B07D1424B1B6803F002032F
:1040E000002B09D10123F0E03E4B1B6803F48063F1
:1040F000002B01D10123E8E03A4B9B6823F0030237
:104100007B685B68374913438B60FCF7BBFFF86043
:104110000AE0FCF7B7FF0246FB68D31A41F2883287
:10412000934201D90323D0E02E4B9B6803F00C028D
:104130007B685B689B009A42EBD17B681B6803F04D
:104140000203002B31D07B689B68002B24D07B6856
:104150009B68802B20D07B689B68902B1CD07B6851
:104160009B68A02B18D07B689B68B02B14D07B6811
:104170009B68C02B10D07B689B68D02B0CD07B68D1
:104180009B68E02B08D07B689B68F02B04D04FF431
:104190009B6112480EF04FFA124B9B6823F0F0021D
:1041A0007B689B680F4913438B600D4B1B6803F0C2
:1041B00007033A689A4217D2094B1B6823F007029B
:1041C00007493B6813430B60054B1B6803F007036B
:1041D0003A689A4208D0012377E000BF54A9010849
:1041E00000200240001002407B681B6803F00403BB
:1041F000002B25D07B68DB68002B18D07B68DB6840
:10420000B3F5806F13D07B68DB68B3F5A06F0ED079
:104210007B68DB68B3F5C06F09D07B68DB68B3F5FA
:10422000E06F04D04FF49F612A480EF004FA2A4B45
:104230009B6823F4E0627B68DB68274913438B604B
:104240007B681B6803F00803002B26D07B681B6982
:10425000002B18D07B681B69B3F5806F13D07B6887
:104260001B69B3F5A06F0ED07B681B69B3F5C06FF7
:1042700009D07B681B69B3F5E06F04D040F2FF41C1
:1042800014480EF0D8F9144B9B6823F460527B68F5
:104290001B69DB00104913438B6000F025F80246D0
:1042A0000D4B9B681B0903F00F030C49CB5C03F01B
:1042B0001F0322FA03F30A4A13600A4B1B681846CD
:1042C0000EF064FD0346FB72FB7A18461037BD46BC
:1042D00080BD00BF54A901080010024004C40108B9
:1042E000A80300200000002080B489B000AF0023A4
:1042F000FB610023BB613E4B9B6803F00C033B61F9
:104300003B4BDB6803F00303FB603B69002B05D0EC
:104310003B690C2B21D1FB68012B1ED1344B1B6850
:1043200003F00803002B07D1314BD3F894301B0A5C
:1043300003F00F03FB6105E02D4B1B681B0903F025
:104340000F03FB612B4AFB6952F82330FB613B6989
:10435000002B0DD1FB69BB610AE03B69042B02D144
:10436000254BBB6104E03B69082B01D1234BBB61AA
:104370003B690C2B34D11E4BDB6803F00303BB609D
:10438000BB68022B03D0BB68032B03D005E01A4B9C
:104390007B6105E0194B7B6102E0FB697B6100BF3B
:1043A000134BDB681B0903F0070301337B60104BE1
:1043B000DB681B0A03F07F037A6902FB03F27B6868
:1043C000B2FBF3F37B610A4BDB685B0E03F0030384
:1043D00001335B003B607A693B68B2FBF3F3BB617E
:1043E000BB6918462437BD465DF8047B704700BFA3
:1043F000001002401CC401080024F40000127A00DE
:1044000080B400AF034B1B681846BD465DF8047BC3
:10441000704700BFA803002080B500AFFFF7F0FF92
:104420000246064B9B681B0A03F007030449CB5C5A
:1044300003F01F0322FA03F3184680BD0010024068
:1044400014C4010880B500AFFFF7DAFF0246064B3F
:104450009B68DB0A03F007030449CB5C03F01F03EE
:1044600022FA03F3184680BD0010024014C401086C
:1044700080B582B000AF786039607B68002B04D1D2
:1044800040F2976118480EF0D6F83B68002B04D133
:104490004FF4D36114480EF0CEF87B680F221A60F7
:1044A000124B9B6803F003027B685A600F4B9B68BA
:1044B00003F0F0027B689A600C4B9B6803F4E062A7
:1044C0007B68DA60094B9B68DB0803F4E0627B6879
:1044D0001A61074B1B6803F007023B681A6000BFB4
:1044E0000837BD4680BD00BF54A901080010024036
:1044F0000020024080B586B000AF786000233B61A9
:104500002A4B9B6D03F08053002B03D0FEF77EFFF8
:10451000786114E0254B9B6D244A43F080539365EA
:10452000224B9B6D03F08053FB60FB68FEF76EFF30
:1045300078611E4B9B6D1D4A23F0805393657B6908
:10454000B3F5007F0BD17B68802B19D97B68A02B3A
:1045500002D902233B6113E001233B6110E07B6839
:10456000802B02D903233B610AE07B68802B02D1B8
:1045700002233B6104E07B68702B01D101233B6186
:104580000B4B1B6823F0070209493B6913430B607F
:10459000074B1B6803F007033A699A4201D00123D5
:1045A00000E0002318461837BD4680BD00100240C9
:1045B0000020024080B586B000AF78600023FB7415
:1045C0000023BB747B681B6803F00103002B7BD1C5
:1045D0007B681B6803F00203002B75D17B681B68A6
:1045E00003F00403002B6FD17B681B6803F0080302
:1045F000002B69D17B681B6803F01003002B63D18B
:104600007B681B6803F02003002B5DD17B681B686F
:1046100003F04003002B57D17B681B6803F0800335
:10462000002B51D17B681B6803F48073002B4BD1A6
:104630007B681B6803F48013002B45D17B681B68E3
:1046400003F40073002B3FD17B681B6803F4806385
:10465000002B39D17B681B6803F40063002B33D136
:104660007B681B6803F48053002B2DD17B681B688B
:1046700003F40053002B27D17B681B6803F48043AD
:10468000002B21D17B681B6803F40043002B1BD156
:104690007B681B6803F48033002B15D17B681B6893
:1046A00003F40033002B0FD17B681B6803F48023D5
:1046B000002B09D17B681B6803F40023002B03D176
:1046C000CB21AD480DF0B7FF7B681B6803F4006396
:1046D000002B58D07B689B6E002B12D07B689B6EA2
:1046E000B3F5800F0DD07B689B6EB3F5000F08D03B
:1046F0007B689B6EB3F5400F03D0D3219E480DF02D
:104700009AFF7B689B6EB3F5400F2AD0B3F5400F3C
:1047100024D8B3F5000F08D0B3F5000F1ED8002B36
:104720000AD0B3F5800F10D018E0944BDB68934AA1
:1047300043F48033D36015E07B68043300211846CE
:1047400000F08CFC0346FB740CE07B6820330021F6
:10475000184600F001FE0346FB7403E00123FB74DE
:1047600000E000BFFB7C002B0BD1844BD3F88830DA
:1047700023F440027B689B6E80491343C1F8883064
:1047800001E0FB7CBB747B681B6803F48053002B47
:1047900059D07B68DB6E002B13D07B68DB6EB3F1E6
:1047A000807F0ED07B68DB6EB3F1007F09D07B6821
:1047B000DB6EB3F1407F04D040F211116E480DF072
:1047C0003AFF7B68DB6EB3F1407F2AD0B3F1407FC4
:1047D00024D8B3F1007F08D0B3F1007F1ED8002B9E
:1047E0000AD0B3F1807F10D018E0644BDB68634AD5
:1047F00043F48033D36015E07B680433002118460E
:1048000000F02CFC0346FB740CE07B682033002195
:10481000184600F0A1FD0346FB7403E00123FB747E
:1048200000E000BFFB7C002B0BD1544BD3F8883049
:1048300023F040727B68DB6E50491343C1F8883027
:1048400001E0FB7CBB747B681B6803F40033002B26
:1048500000F0BF8000237B747B68D3F88830002B86
:1048600016D07B68D3F88830B3F5807F10D07B6892
:10487000D3F88830B3F5007F0AD07B68D3F888304E
:10488000B3F5407F04D04FF4A3713B480DF0D3FE45
:104890003A4B9B6D03F08053002B01D1012300E0C4
:1048A0000023002B0DD0354B9B6D344A43F08053D1
:1048B0009365324B9B6D03F08053BB60BB68012353
:1048C0007B742F4B1B682E4A43F480731360FCF7F4
:1048D000D9FBF86009E0FCF7D5FB0246FB68D31A68
:1048E000022B02D90323FB7405E0254B1B6803F45C
:1048F0008073002BEFD0FB7C002B5FD11F4BD3F8D4
:10490000903003F440737B617B69002B1FD07B6880
:10491000D3F888307A699A4219D0184BD3F890307E
:1049200023F440737B61154BD3F89030134A43F462
:104930008033C2F89030114BD3F890300F4A23F4F3
:104940008033C2F890300D4A7B69C2F890307B69A1
:1049500003F00103002B1CD0FCF794FBF86011E07E
:10496000FCF790FB0246FB68D31A41F2883293426F
:1049700008D90323FB740CE08CA901080010024045
:10498000007000400C4BD3F8903003F00203002B72
:10499000E6D0FB7C002B0CD1074BD3F8903023F4EE
:1049A00040727B68D3F8883003491343C1F89030D4
:1049B00006E0FB7CBB7403E000100240FB7CBB7490
:1049C0007B7C012B05D1A14B9B6DA04A23F080532A
:1049D00093657B681B6803F00103002B1FD07B6885
:1049E0009B6B002B10D07B689B6B012B0CD07B68E2
:1049F0009B6B032B08D07B689B6B022B04D040F28F
:104A00009B1193480DF017FE904BD3F8883023F09C
:104A100003027B689B6B8D491343C1F888307B6828
:104A20001B6803F00203002B1FD07B68DB6B002B9D
:104A300010D07B68DB6B042B0CD07B68DB6B0C2B02
:104A400008D07B68DB6B082B04D040F2A5118048AE
:104A50000DF0F1FD7D4BD3F8883023F00C027B681C
:104A6000DB6B7A491343C1F888307B681B6803F01D
:104A70000403002B1FD07B681B6C002B10D07B68BD
:104A80001B6C102B0CD07B681B6C302B08D07B6808
:104A90001B6C202B04D040F2B1116D480DF0CBFD02
:104AA0006A4BD3F8883023F030027B681B6C67496F
:104AB0001343C1F888307B681B6803F00803002BA0
:104AC0001FD07B685B6C002B10D07B685B6C402B2D
:104AD0000CD07B685B6CC02B08D07B685B6C802B38
:104AE00004D040F2BF115A480DF0A5FD574BD3F842
:104AF000883023F0C0027B685B6C54491343C1F8D3
:104B000088307B681B6803F01003002B22D07B6881
:104B10009B6C002B13D07B689B6CB3F5807F0ED011
:104B20007B689B6CB3F5407F09D07B689B6CB3F5C9
:104B3000007F04D040F2CD1145480DF07CFD434B81
:104B4000D3F8883023F440727B689B6C3F49134351
:104B5000C1F888307B681B6803F02003002B22D04B
:104B60007B68DB6C002B13D07B68DB6CB3F5806F4C
:104B70000ED07B68DB6CB3F5406F09D07B68DB6CD3
:104B8000B3F5006F04D040F2D91131480DF053FD58
:104B90002E4BD3F8883023F440627B68DB6C2B49C2
:104BA0001343C1F888307B681B6803F40073002B43
:104BB00022D07B681B6E002B13D07B681B6EB3F575
:104BC000802F0ED07B681B6EB3F5002F09D07B6859
:104BD0001B6EB3F5402F04D04FF4F1711C480DF05B
:104BE0002AFD1A4BD3F8883023F440227B681B6ED1
:104BF00016491343C1F888307B681B6803F480634F
:104C0000002B27D07B685B6E002B13D07B685B6E1C
:104C1000B3F5801F0ED07B685B6EB3F5001F09D023
:104C20007B685B6EB3F5401F04D040F2E911084881
:104C30000DF001FD054BD3F8883023F440127B685A
:104C40005B6E02491343C1F8883003E00010024054
:104C50008CA901087B681B6803F04003002B1DD062
:104C60007B681B6D002B0ED07B681B6DB3F5805FDE
:104C700009D07B681B6DB3F5005F04D040F2F111E1
:104C80009D480DF0D8FC9D4BD3F8883023F440525A
:104C90007B681B6D99491343C1F888307B681B689A
:104CA00003F08003002B1DD07B685B6D002B0ED0C2
:104CB0007B685B6DB3F5804F09D07B685B6DB3F5A6
:104CC000004F04D040F2FD118B480DF0B4FC8B4B2B
:104CD000D3F8883023F440427B685B6D87491343E7
:104CE000C1F888307B681B6803F48073002B1DD0EB
:104CF0007B689B6D002B0ED07B689B6DB3F5803F6E
:104D000009D07B689B6DB3F5003F04D040F20921C8
:104D100079480DF090FC794BD3F8883023F4403279
:104D20007B689B6D75491343C1F888307B681B68AD
:104D300003F48013002B1BD07B68DB6D002B0CD0A1
:104D40007B68DB6D012B08D07B68DB6D022B04D008
:104D500040F2152168480DF06EFC684BD3F89C308A
:104D600023F003027B68DB6D64491343C1F89C3078
:104D70007B681B6803F40053002B40D07B681B6FDB
:104D8000002B13D07B681B6FB3F1806F0ED07B6854
:104D90001B6FB3F1006F09D07B681B6FB3F1406FDD
:104DA00004D040F2222154480DF045FC534BD3F877
:104DB000883023F040627B681B6F50491343C1F871
:104DC00088307B681B6FB3F1006F06D14B4BDB68FB
:104DD0004A4A43F48013D36011E07B681B6FB3F140
:104DE000806F0CD17B6804330121184600F036F93E
:104DF0000346FB74FB7C002B01D0FB7CBB747B68FF
:104E00001B6803F40023002B40D07B685B6F002BF2
:104E100013D07B685B6FB3F1806F0ED07B685B6FE4
:104E2000B3F1006F09D07B685B6FB3F1406F04D0C2
:104E300040F2432130480DF0FEFB304BD3F8883070
:104E400023F040627B685B6F2C491343C1F88830C4
:104E50007B685B6FB3F1006F06D1284BDB68274A94
:104E600043F48013D36011E07B685B6FB3F1806F14
:104E70000CD17B6804330121184600F0EFF803469B
:104E8000FB74FB7C002B01D0FB7CBB747B681B6834
:104E900003F48023002B45D07B689B6F002B13D03D
:104EA0007B689B6FB3F1806F0ED07B689B6FB3F113
:104EB000006F09D07B689B6FB3F1406F04D04FF453
:104EC0001A710D480DF0B7FB0C4BD3F8883023F066
:104ED00040627B689B6F09491343C1F888307B6847
:104EE0009B6FB3F1006F0BD1044BDB68034A43F4B3
:104EF0008013D36016E000BF8CA9010800100240A7
:104F00007B689B6FB3F1806F0CD17B680433012108
:104F1000184600F0A3F80346FB74FB7C002B01D07D
:104F2000FB7CBB747B681B6803F48043002B47D079
:104F30007B68DB6F002B13D07B68DB6FB3F1805F86
:104F40000ED07B68DB6FB3F1005F09D07B68DB6F4D
:104F5000B3F1405F04D04FF422713E480DF06BFB7B
:104F60003D4BD3F8883023F040527B68DB6F3A49E1
:104F70001343C1F888307B68DB6FB3F1805F0DD1DC
:104F80007B6804330221184600F068F80346FB747E
:104F9000FB7C002B14D0FB7CBB7411E07B68DB6FC7
:104FA000B3F1005F0CD17B6820330221184600F07A
:104FB000D3F90346FB74FB7C002B01D0FB7CBB7454
:104FC0007B681B6803F40043002B1BD07B68D3F87D
:104FD0008030002B0AD07B68D3F88030B3F1804F4B
:104FE00004D04FF42D711B480DF025FB1A4BD3F85C
:104FF000883023F080427B68D3F880301649134311
:10500000C1F888307B681B6803F48033002B1BD009
:105010007B68D3F88430002B0AD07B68D3F88430C7
:10502000B3F1004F04D040F2C2210A480DF003FB57
:10503000094BD3F8883023F000427B68D3F88430E2
:1050400005491343C1F88830BB7C18461837BD4664
:1050500080BD00BF8CA901080010024080B584B05B
:1050600000AF786039600023FB737B681B68002BFE
:1050700010D07B681B68012B0CD07B681B68022B4F
:1050800008D07B681B68032B04D04FF43661A4481A
:105090000DF0D1FA7B685B68002B03D07B685B68FE
:1050A000082B04D940F661319D480DF0C4FA7B68A5
:1050B0009B68072B03D97B689B68562B04D940F665
:1050C000623197480DF0B7FA7B689B6903F480332F
:1050D000002B0BD17B689B6903F48013002B05D157
:1050E0007B689B6903F08073002B07D07B689B690A
:1050F00023F0887323F48033002B04D040F663310F
:1051000087480DF098FA874BDB6803F00303002B08
:1051100018D0844BDB6803F003027B681B689A425B
:105120000DD17B681B68002B09D07E4BDB681B0907
:1051300003F007035A1C7B685B689A4247D001233F
:10514000FB7344E07B681B68032B18D0032B25D826
:10515000012B02D0022B09D020E0724B1B6803F018
:105160000203002B1DD10123FB731AE06D4B1B685A
:1051700003F48063002B16D10123FB7313E0694B0A
:105180001B6803F40033002B0FD1664B1B6803F43C
:105190008023002B09D10123FB7306E00123FB735D
:1051A00004E000BF02E000BF00E000BFFB7B002B7B
:1051B0000DD15C4BDB6823F073027B6819687B6858
:1051C0005B68013B1B010B4356491343CB60FB7BE0
:1051D000002B40F0B980534B1B68524A23F0806388
:1051E0001360FBF74FFFB86009E0FBF74BFF024687
:1051F000BB68D31A022B02D90323FB7305E0494B8A
:105200001B6803F00063002BEFD1FB7B002B40F009
:105210009B803B68002B1DD17B68DB68012B03D989
:105220007B68DB681F2B04D940F6B6313C480DF093
:1052300002FA3C4B1B6923F0784323F4FE437A685F
:10524000926811027A68D268D2060A43354913433C
:105250000B6151E03B68012B27D17B681B69022B56
:1052600010D07B681B69042B0CD07B681B69062B54
:1052700008D07B681B69082B04D040F6DA31284837
:105280000DF0D9F9274B1B6923F4C00323F4FE4327
:105290007A68926811027A6812695208013A5205D6
:1052A0000A43204913430B6126E07B685B69022BAC
:1052B00010D07B685B69042B0CD07B685B69062B84
:1052C00008D07B685B69082B04D040F6EC311448A9
:1052D0000DF0B1F9134B1B6923F0C06323F4FE43B7
:1052E0007A68926811027A6852695208013A520645
:1052F0000A430C4913430B610A4B1B68094A43F0EC
:1053000080631360FBF7BEFEB8600DE0FBF7BAFEEA
:105310000246BB68D31A022B06D90323FB7309E0AC
:105320008CA90108001002400A4B1B6803F00063BF
:10533000002BEBD0FB7B002B06D1064B1A697B6858
:105340009B69044913430B61FB7B18461037BD462C
:1053500080BD00BF0010024080B584B000AF78600F
:1053600039600023FB737B681B68002B10D07B68BF
:105370001B68012B0CD07B681B68022B08D07B6854
:105380001B68032B04D040F62D4196480DF053F9CD
:105390007B685B68002B03D07B685B68082B04D9B3
:1053A00040F62E418F480DF046F97B689B68072B2D
:1053B00003D97B689B68562B04D940F62F41894856
:1053C0000DF039F97B685B6903F48033002B05D15C
:1053D0007B685B6903F08073002B07D07B685B6997
:1053E00023F0807323F48033002B04D04FF4436107
:1053F0007C480DF020F97C4BDB6803F00303002BA5
:1054000018D0794BDB6803F003027B681B689A4273
:105410000DD17B681B68002B09D0734BDB681B091F
:1054200003F007035A1C7B685B689A4247D001234C
:10543000FB7344E07B681B68032B18D0032B25D833
:10544000012B02D0022B09D020E0674B1B6803F030
:105450000203002B1DD10123FB731AE0624B1B6872
:1054600003F48063002B16D10123FB7313E05E4B22
:105470001B6803F40033002B0FD15B4B1B6803F454
:105480008023002B09D10123FB7306E00123FB736A
:1054900004E000BF02E000BF00E000BFFB7B002B88
:1054A0000DD1514BDB6823F073027B6819687B6870
:1054B0005B68013B1B010B434B491343CB60FB7BF8
:1054C000002B40F08980484B1B68474A23F08053EB
:1054D0001360FBF7D7FDB86009E0FBF7D3FD024688
:1054E000BB68D31A022B02D90323FB7305E03E4BA2
:1054F0001B6803F00053002BEFD1FB7B002B6BD11B
:105500003B68002B1DD17B68DB68012B03D97B68CE
:10551000DB681F2B04D940F6834132480DF08BF82D
:10552000314B5B6923F0784323F4FE437A68926839
:1055300011027A68D268D2060A432B4913434B61A1
:1055400026E07B681B69022B10D07B681B69042B4B
:105550000CD07B681B69062B08D07B681B69082B65
:1055600004D040F6BB411F480DF065F81E4B5B6947
:1055700023F0C06323F4FE437A68926811027A68CC
:1055800012695208013A52060A43174913434B6104
:10559000154B1B68144A43F080531360FBF772FDF0
:1055A000B86009E0FBF76EFD0246BB68D31A022B18
:1055B00002D90323FB7305E00B4B1B6803F0005378
:1055C000002BEFD0FB7B002B06D1074B5A697B6881
:1055D0005B69054913434B61FB7B18461037BD4699
:1055E00080BD00BF8CA901080010024080B584B0C6
:1055F00000AF78600123FB737B68002B00F0D5803F
:105600007B681B686B4A934203D0FE216A480DF009
:1056100012F87B685B68402B07D07B685B68002BC7
:1056200003D0FF2164480DF006F87B689B687F2B50
:1056300004D94FF4807160480CF0FDFF7B68DB6893
:10564000B3F5004F04D340F201115B480CF0F3FFB7
:105650007B681B69002B13D07B681B69B3F5001FA7
:105660000ED07B681B69B3F5800F09D07B681B697E
:10567000B3F5C00F04D04FF481714F480CF0DBFF3D
:105680007B685B69002B08D07B685B69022B04D0C8
:1056900040F2031148480CF0CEFF7B689B69002B59
:1056A00009D07B689B69B3F5801F04D04FF48271E9
:1056B00041480CF0C0FF7B68DB69002B08D07B6899
:1056C000DB69012B04D040F205113B480CF0B3FF1D
:1056D0007B6893F82130DBB2002B06D17B68002277
:1056E00083F8202078680DF02FFB7B68022283F876
:1056F00021207B681B68CA225A627B681B68532280
:105700005A62786800F094FE0346FB73FB7B002B23
:105710004BD17B681B689B687A68126823F4E003AE
:1057200023F0400393607B681B6899687B685A6824
:105730007B681B691A437B689B691A437B681B68FB
:105740000A439A607B681B687A68D2681A617B6832
:105750001B6819697B689B681A047B681B680A438D
:105760001A61786800F098FE0346FB73FB7B002B00
:105770001BD17B681B68DA6C7B681B6822F0030214
:10578000DA647B681B68D96C7B68DA697B685B6963
:105790001A437B681B680A43DA647B681B68FF2234
:1057A0005A627B68012283F82120FB7B1846103760
:1057B000BD4680BD00280040C8A9010890B587B04B
:1057C00000AFF860B9607A607B68002B07D07B6817
:1057D000012B04D04FF4B5619D480CF02CFFBB6841
:1057E000DB68B3F5003F0DD0BB68DB68B3F5803FE5
:1057F00008D0BB68DB68002B04D040F2A951944864
:105800000CF019FFBB681B69002B09D0BB681B6932
:10581000B3F5802F04D040F2AA518D480CF00BFF55
:10582000FB6893F82030012B01D102230CE1FB68C7
:10583000012283F82020FB68022283F82120FB68E4
:105840001B68CA225A62FB681B6853225A62F868B6
:1058500000F0EEFD0346FB74FB7C002B40F0E4807F
:105860007B68002B5CD1FB681B689B6803F04003DE
:10587000002B1AD0BB681B78002B03D0BB681B78A9
:105880000C2B04D940F2BC5171480CF0D4FEBB681B
:10589000DB78002B15D0BB68DB78012B11D040F2F0
:1058A000BD516B480CF0C7FE0BE0BB680022DA70FC
:1058B000BB681B78172B04D940F2C25164480CF026
:1058C000BAFEBB685B783B2B04D940F2C4516048F8
:1058D0000CF0B1FEBB689B783B2B04D940F2C5515C
:1058E0005B480CF0A8FEBB681B78184600F012FE5F
:1058F00003461C04BB685B78184600F00BFE0346A9
:105900001B021C43BB689B78184600F003FE03464D
:1059100044EA0302BB68DB789B0513437B6162E0CA
:10592000FB681B689B6803F04003002B22D0BB6818
:105930001B78184600F00EFE0346002B07D0BB680C
:105940001B78184600F006FE03460C2B04D94FF4D2
:10595000BA613F480CF06FFEBB68DB78002B19D0B2
:10596000BB68DB78012B15D040F2D15138480CF0E0
:1059700062FE0FE0BB680022DA70BB681B78184635
:1059800000F0E8FD0346172B04D940F2D651304809
:105990000CF051FEBB685B78184600F0DBFD034657
:1059A0003B2B04D94FF4BB6129480CF044FEBB6883
:1059B0009B78184600F0CEFD03463B2B04D940F2FD
:1059C000D95123480CF037FEBB681B781A04BB681A
:1059D0005B781B021343BA6892781A43BB68DB7882
:1059E0009B0513437B61FB681A687B6903F07F3377
:1059F00023F0FE431360FB681B689A68FB681B6812
:105A000022F480229A60FB681B689968BB68DA6898
:105A1000BB681B691A43FB681B680A439A60F868F5
:105A200000F03AFD0346FB74FB681B68FF225A62D4
:105A3000FB7C002B03D1FB68012283F82120FB684B
:105A4000002283F82020FB7C18461C37BD4690BD01
:105A5000C8A9010880B586B000AFF860B9607A6067
:105A60007B68002B07D07B68012B04D040F21561C6
:105A70002C480CF0E0FDFB681B689A6ABB685A6012
:105A8000FB681B681B69C3F30E02BB689A60FB6866
:105A90001B681B6803F07F3323F0FE437B617B6947
:105AA0001B0CDBB203F03F03DAB2BB681A707B69F0
:105AB0001B0ADBB203F07F03DAB2BB685A707B6962
:105AC000DBB203F07F03DAB2BB689A707B699B0D8F
:105AD000DBB203F00103DAB2BB68DA707B68002B3B
